{
  "contractName": "Arcello",
  "abi": [
    {
      "inputs": [],
      "stateMutability": "nonpayable",
      "type": "constructor"
    },
    {
      "anonymous": false,
      "inputs": [
        {
          "indexed": true,
          "internalType": "address",
          "name": "owner",
          "type": "address"
        },
        {
          "indexed": true,
          "internalType": "address",
          "name": "approved",
          "type": "address"
        },
        {
          "indexed": true,
          "internalType": "uint256",
          "name": "tokenId",
          "type": "uint256"
        }
      ],
      "name": "Approval",
      "type": "event"
    },
    {
      "anonymous": false,
      "inputs": [
        {
          "indexed": true,
          "internalType": "address",
          "name": "owner",
          "type": "address"
        },
        {
          "indexed": true,
          "internalType": "address",
          "name": "operator",
          "type": "address"
        },
        {
          "indexed": false,
          "internalType": "bool",
          "name": "approved",
          "type": "bool"
        }
      ],
      "name": "ApprovalForAll",
      "type": "event"
    },
    {
      "anonymous": false,
      "inputs": [
        {
          "indexed": true,
          "internalType": "address",
          "name": "from",
          "type": "address"
        },
        {
          "indexed": true,
          "internalType": "address",
          "name": "to",
          "type": "address"
        },
        {
          "indexed": true,
          "internalType": "uint256",
          "name": "tokenId",
          "type": "uint256"
        }
      ],
      "name": "Transfer",
      "type": "event"
    },
    {
      "inputs": [
        {
          "internalType": "address",
          "name": "to",
          "type": "address"
        },
        {
          "internalType": "uint256",
          "name": "tokenId",
          "type": "uint256"
        }
      ],
      "name": "approve",
      "outputs": [],
      "stateMutability": "nonpayable",
      "type": "function"
    },
    {
      "inputs": [
        {
          "internalType": "uint256",
          "name": "",
          "type": "uint256"
        }
      ],
      "name": "assets",
      "outputs": [
        {
          "internalType": "uint256",
          "name": "id",
          "type": "uint256"
        },
        {
          "internalType": "bool",
          "name": "sold",
          "type": "bool"
        },
        {
          "internalType": "uint256",
          "name": "price",
          "type": "uint256"
        },
        {
          "internalType": "string",
          "name": "name",
          "type": "string"
        },
        {
          "internalType": "string",
          "name": "fileid",
          "type": "string"
        },
        {
          "internalType": "address payable",
          "name": "creator",
          "type": "address"
        },
        {
          "internalType": "address",
          "name": "approvedTo",
          "type": "address"
        },
        {
          "internalType": "address",
          "name": "owner",
          "type": "address"
        }
      ],
      "stateMutability": "view",
      "type": "function",
      "constant": true
    },
    {
      "inputs": [
        {
          "internalType": "address",
          "name": "owner",
          "type": "address"
        }
      ],
      "name": "balanceOf",
      "outputs": [
        {
          "internalType": "uint256",
          "name": "",
          "type": "uint256"
        }
      ],
      "stateMutability": "view",
      "type": "function",
      "constant": true
    },
    {
      "inputs": [],
      "name": "baseURI",
      "outputs": [
        {
          "internalType": "string",
          "name": "",
          "type": "string"
        }
      ],
      "stateMutability": "view",
      "type": "function",
      "constant": true
    },
    {
      "inputs": [],
      "name": "bidCount",
      "outputs": [
        {
          "internalType": "uint256",
          "name": "",
          "type": "uint256"
        }
      ],
      "stateMutability": "view",
      "type": "function",
      "constant": true
    },
    {
      "inputs": [
        {
          "internalType": "uint256",
          "name": "",
          "type": "uint256"
        }
      ],
      "name": "bids",
      "outputs": [
        {
          "internalType": "uint256",
          "name": "id",
          "type": "uint256"
        },
        {
          "internalType": "uint256",
          "name": "tid",
          "type": "uint256"
        },
        {
          "internalType": "uint256",
          "name": "amount",
          "type": "uint256"
        },
        {
          "internalType": "address payable",
          "name": "creator",
          "type": "address"
        },
        {
          "internalType": "address",
          "name": "bidder",
          "type": "address"
        }
      ],
      "stateMutability": "view",
      "type": "function",
      "constant": true
    },
    {
      "inputs": [
        {
          "internalType": "uint256",
          "name": "tokenId",
          "type": "uint256"
        }
      ],
      "name": "getApproved",
      "outputs": [
        {
          "internalType": "address",
          "name": "",
          "type": "address"
        }
      ],
      "stateMutability": "view",
      "type": "function",
      "constant": true
    },
    {
      "inputs": [
        {
          "internalType": "address",
          "name": "owner",
          "type": "address"
        },
        {
          "internalType": "address",
          "name": "operator",
          "type": "address"
        }
      ],
      "name": "isApprovedForAll",
      "outputs": [
        {
          "internalType": "bool",
          "name": "",
          "type": "bool"
        }
      ],
      "stateMutability": "view",
      "type": "function",
      "constant": true
    },
    {
      "inputs": [],
      "name": "name",
      "outputs": [
        {
          "internalType": "string",
          "name": "",
          "type": "string"
        }
      ],
      "stateMutability": "view",
      "type": "function",
      "constant": true
    },
    {
      "inputs": [
        {
          "internalType": "uint256",
          "name": "tokenId",
          "type": "uint256"
        }
      ],
      "name": "ownerOf",
      "outputs": [
        {
          "internalType": "address",
          "name": "",
          "type": "address"
        }
      ],
      "stateMutability": "view",
      "type": "function",
      "constant": true
    },
    {
      "inputs": [
        {
          "internalType": "address",
          "name": "from",
          "type": "address"
        },
        {
          "internalType": "address",
          "name": "to",
          "type": "address"
        },
        {
          "internalType": "uint256",
          "name": "tokenId",
          "type": "uint256"
        }
      ],
      "name": "safeTransferFrom",
      "outputs": [],
      "stateMutability": "nonpayable",
      "type": "function"
    },
    {
      "inputs": [
        {
          "internalType": "address",
          "name": "from",
          "type": "address"
        },
        {
          "internalType": "address",
          "name": "to",
          "type": "address"
        },
        {
          "internalType": "uint256",
          "name": "tokenId",
          "type": "uint256"
        },
        {
          "internalType": "bytes",
          "name": "_data",
          "type": "bytes"
        }
      ],
      "name": "safeTransferFrom",
      "outputs": [],
      "stateMutability": "nonpayable",
      "type": "function"
    },
    {
      "inputs": [
        {
          "internalType": "address",
          "name": "operator",
          "type": "address"
        },
        {
          "internalType": "bool",
          "name": "approved",
          "type": "bool"
        }
      ],
      "name": "setApprovalForAll",
      "outputs": [],
      "stateMutability": "nonpayable",
      "type": "function"
    },
    {
      "inputs": [
        {
          "internalType": "bytes4",
          "name": "interfaceId",
          "type": "bytes4"
        }
      ],
      "name": "supportsInterface",
      "outputs": [
        {
          "internalType": "bool",
          "name": "",
          "type": "bool"
        }
      ],
      "stateMutability": "view",
      "type": "function",
      "constant": true
    },
    {
      "inputs": [],
      "name": "symbol",
      "outputs": [
        {
          "internalType": "string",
          "name": "",
          "type": "string"
        }
      ],
      "stateMutability": "view",
      "type": "function",
      "constant": true
    },
    {
      "inputs": [
        {
          "internalType": "uint256",
          "name": "index",
          "type": "uint256"
        }
      ],
      "name": "tokenByIndex",
      "outputs": [
        {
          "internalType": "uint256",
          "name": "",
          "type": "uint256"
        }
      ],
      "stateMutability": "view",
      "type": "function",
      "constant": true
    },
    {
      "inputs": [
        {
          "internalType": "address",
          "name": "owner",
          "type": "address"
        },
        {
          "internalType": "uint256",
          "name": "index",
          "type": "uint256"
        }
      ],
      "name": "tokenOfOwnerByIndex",
      "outputs": [
        {
          "internalType": "uint256",
          "name": "",
          "type": "uint256"
        }
      ],
      "stateMutability": "view",
      "type": "function",
      "constant": true
    },
    {
      "inputs": [
        {
          "internalType": "uint256",
          "name": "tokenId",
          "type": "uint256"
        }
      ],
      "name": "tokenURI",
      "outputs": [
        {
          "internalType": "string",
          "name": "",
          "type": "string"
        }
      ],
      "stateMutability": "view",
      "type": "function",
      "constant": true
    },
    {
      "inputs": [],
      "name": "tokenid",
      "outputs": [
        {
          "internalType": "uint256",
          "name": "",
          "type": "uint256"
        }
      ],
      "stateMutability": "view",
      "type": "function",
      "constant": true
    },
    {
      "inputs": [],
      "name": "totalSupply",
      "outputs": [
        {
          "internalType": "uint256",
          "name": "",
          "type": "uint256"
        }
      ],
      "stateMutability": "view",
      "type": "function",
      "constant": true
    },
    {
      "inputs": [
        {
          "internalType": "address",
          "name": "from",
          "type": "address"
        },
        {
          "internalType": "address",
          "name": "to",
          "type": "address"
        },
        {
          "internalType": "uint256",
          "name": "tokenId",
          "type": "uint256"
        }
      ],
      "name": "transferFrom",
      "outputs": [],
      "stateMutability": "nonpayable",
      "type": "function"
    },
    {
      "inputs": [
        {
          "internalType": "uint256",
          "name": "_price",
          "type": "uint256"
        },
        {
          "internalType": "string",
          "name": "_name",
          "type": "string"
        },
        {
          "internalType": "string",
          "name": "_fileid",
          "type": "string"
        }
      ],
      "name": "createAsset",
      "outputs": [],
      "stateMutability": "nonpayable",
      "type": "function"
    },
    {
      "inputs": [
        {
          "internalType": "uint256",
          "name": "_tid",
          "type": "uint256"
        },
        {
          "internalType": "uint256",
          "name": "_amount",
          "type": "uint256"
        }
      ],
      "name": "createBid",
      "outputs": [],
      "stateMutability": "payable",
      "type": "function",
      "payable": true
    },
    {
      "inputs": [
        {
          "internalType": "uint256",
          "name": "_id",
          "type": "uint256"
        }
      ],
      "name": "approveBid",
      "outputs": [],
      "stateMutability": "nonpayable",
      "type": "function"
    },
    {
      "inputs": [
        {
          "internalType": "uint256",
          "name": "_id",
          "type": "uint256"
        }
      ],
      "name": "purchaseAsset",
      "outputs": [],
      "stateMutability": "payable",
      "type": "function",
      "payable": true
    }
  ],
  "bytecode": "0x60806040523480156200001157600080fd5b506040518060400160405280600781526020017f417263656c6c6f000000000000000000000000000000000000000000000000008152506040518060400160405280600381526020017f4152430000000000000000000000000000000000000000000000000000000000815250620000966301ffc9a760e01b6200011860201b60201c565b8160069080519060200190620000ae92919062000221565b508060079080519060200190620000c792919062000221565b50620000e06380ac58cd60e01b6200011860201b60201c565b620000f8635b5e139f60e01b6200011860201b60201c565b6200011063780e9d6360e01b6200011860201b60201c565b5050620002c7565b63ffffffff60e01b817bffffffffffffffffffffffffffffffffffffffffffffffffffffffff19161415620001b5576040517f08c379a000000000000000000000000000000000000000000000000000000000815260040180806020018281038252601c8152602001807f4552433136353a20696e76616c696420696e746572666163652069640000000081525060200191505060405180910390fd5b6001600080837bffffffffffffffffffffffffffffffffffffffffffffffffffffffff19167bffffffffffffffffffffffffffffffffffffffffffffffffffffffff1916815260200190815260200160002060006101000a81548160ff02191690831515021790555050565b828054600181600116156101000203166002900490600052602060002090601f016020900481019282601f106200026457805160ff191683800117855562000295565b8280016001018555821562000295579182015b828111156200029457825182559160200191906001019062000277565b5b509050620002a49190620002a8565b5090565b5b80821115620002c3576000816000905550600101620002a9565b5090565b6145e580620002d76000396000f3fe6080604052600436106101665760003560e01c80636352211e116100d1578063a457e1c01161008a578063b88d4fde11610064578063b88d4fde14610a48578063c87b56dd14610b5a578063cf35bdd014610c0e578063e985e9c514610d9c57610166565b8063a457e1c0146109b7578063b40a5627146109e5578063b7751c7114610a1057610166565b80636352211e146107455780636c0360eb146107aa57806370a082311461083a5780637d6aab0a1461089f57806395d89b41146108ca578063a22cb4651461095a57610166565b80632f745c59116101235780632f745c59146103d157806342842e0e146104405780634423c5f1146104bb5780634f6ccce71461055257806358d932c9146105a1578063613e867e1461070a57610166565b806301ffc9a71461016b57806306fdde03146101db578063081812fc1461026b578063095ea7b3146102d057806318160ddd1461032b57806323b872dd14610356575b600080fd5b34801561017757600080fd5b506101c36004803603602081101561018e57600080fd5b8101908080357bffffffffffffffffffffffffffffffffffffffffffffffffffffffff19169060200190929190505050610e23565b60405180821515815260200191505060405180910390f35b3480156101e757600080fd5b506101f0610e8a565b6040518080602001828103825283818151815260200191508051906020019080838360005b83811015610230578082015181840152602081019050610215565b50505050905090810190601f16801561025d5780820380516001836020036101000a031916815260200191505b509250505060405180910390f35b34801561027757600080fd5b506102a46004803603602081101561028e57600080fd5b8101908080359060200190929190505050610f2c565b604051808273ffffffffffffffffffffffffffffffffffffffff16815260200191505060405180910390f35b3480156102dc57600080fd5b50610329600480360360408110156102f357600080fd5b81019080803573ffffffffffffffffffffffffffffffffffffffff16906020019092919080359060200190929190505050610fc7565b005b34801561033757600080fd5b5061034061110b565b6040518082815260200191505060405180910390f35b34801561036257600080fd5b506103cf6004803603606081101561037957600080fd5b81019080803573ffffffffffffffffffffffffffffffffffffffff169060200190929190803573ffffffffffffffffffffffffffffffffffffffff1690602001909291908035906020019092919050505061111c565b005b3480156103dd57600080fd5b5061042a600480360360408110156103f457600080fd5b81019080803573ffffffffffffffffffffffffffffffffffffffff16906020019092919080359060200190929190505050611192565b6040518082815260200191505060405180910390f35b34801561044c57600080fd5b506104b96004803603606081101561046357600080fd5b81019080803573ffffffffffffffffffffffffffffffffffffffff169060200190929190803573ffffffffffffffffffffffffffffffffffffffff169060200190929190803590602001909291905050506111ed565b005b3480156104c757600080fd5b506104f4600480360360208110156104de57600080fd5b810190808035906020019092919050505061120d565b604051808681526020018581526020018481526020018373ffffffffffffffffffffffffffffffffffffffff1681526020018273ffffffffffffffffffffffffffffffffffffffff1681526020019550505050505060405180910390f35b34801561055e57600080fd5b5061058b6004803603602081101561057557600080fd5b8101908080359060200190929190505050611283565b6040518082815260200191505060405180910390f35b3480156105ad57600080fd5b50610708600480360360608110156105c457600080fd5b8101908080359060200190929190803590602001906401000000008111156105eb57600080fd5b8201836020820111156105fd57600080fd5b8035906020019184600183028401116401000000008311171561061f57600080fd5b91908080601f016020809104026020016040519081016040528093929190818152602001838380828437600081840152601f19601f8201169050808301925050505050505091929192908035906020019064010000000081111561068257600080fd5b82018360208201111561069457600080fd5b803590602001918460018302840111640100000000831117156106b657600080fd5b91908080601f016020809104026020016040519081016040528093929190818152602001838380828437600081840152601f19601f8201169050808301925050505050505091929192905050506112a6565b005b34801561071657600080fd5b506107436004803603602081101561072d57600080fd5b81019080803590602001909291905050506114be565b005b34801561075157600080fd5b5061077e6004803603602081101561076857600080fd5b8101908080359060200190929190505050611a2c565b604051808273ffffffffffffffffffffffffffffffffffffffff16815260200191505060405180910390f35b3480156107b657600080fd5b506107bf611a63565b6040518080602001828103825283818151815260200191508051906020019080838360005b838110156107ff5780820151818401526020810190506107e4565b50505050905090810190601f16801561082c5780820380516001836020036101000a031916815260200191505b509250505060405180910390f35b34801561084657600080fd5b506108896004803603602081101561085d57600080fd5b81019080803573ffffffffffffffffffffffffffffffffffffffff169060200190929190505050611b05565b6040518082815260200191505060405180910390f35b3480156108ab57600080fd5b506108b4611bda565b6040518082815260200191505060405180910390f35b3480156108d657600080fd5b506108df611be0565b6040518080602001828103825283818151815260200191508051906020019080838360005b8381101561091f578082015181840152602081019050610904565b50505050905090810190601f16801561094c5780820380516001836020036101000a031916815260200191505b509250505060405180910390f35b34801561096657600080fd5b506109b56004803603604081101561097d57600080fd5b81019080803573ffffffffffffffffffffffffffffffffffffffff169060200190929190803515159060200190929190505050611c82565b005b6109e3600480360360208110156109cd57600080fd5b8101908080359060200190929190505050611e38565b005b3480156109f157600080fd5b506109fa6123aa565b6040518082815260200191505060405180910390f35b610a4660048036036040811015610a2657600080fd5b8101908080359060200190929190803590602001909291905050506123b0565b005b348015610a5457600080fd5b50610b5860048036036080811015610a6b57600080fd5b81019080803573ffffffffffffffffffffffffffffffffffffffff169060200190929190803573ffffffffffffffffffffffffffffffffffffffff1690602001909291908035906020019092919080359060200190640100000000811115610ad257600080fd5b820183602082011115610ae457600080fd5b80359060200191846001830284011164010000000083111715610b0657600080fd5b91908080601f016020809104026020016040519081016040528093929190818152602001838380828437600081840152601f19601f82011690508083019250505050505050919291929050505061289a565b005b348015610b6657600080fd5b50610b9360048036036020811015610b7d57600080fd5b8101908080359060200190929190505050612912565b6040518080602001828103825283818151815260200191508051906020019080838360005b83811015610bd3578082015181840152602081019050610bb8565b50505050905090810190601f168015610c005780820380516001836020036101000a031916815260200191505b509250505060405180910390f35b348015610c1a57600080fd5b50610c4760048036036020811015610c3157600080fd5b8101908080359060200190929190505050612be3565b60405180898152602001881515815260200187815260200180602001806020018673ffffffffffffffffffffffffffffffffffffffff1681526020018573ffffffffffffffffffffffffffffffffffffffff1681526020018473ffffffffffffffffffffffffffffffffffffffff168152602001838103835288818151815260200191508051906020019080838360005b83811015610cf3578082015181840152602081019050610cd8565b50505050905090810190601f168015610d205780820380516001836020036101000a031916815260200191505b50838103825287818151815260200191508051906020019080838360005b83811015610d59578082015181840152602081019050610d3e565b50505050905090810190601f168015610d865780820380516001836020036101000a031916815260200191505b509a505050505050505050505060405180910390f35b348015610da857600080fd5b50610e0b60048036036040811015610dbf57600080fd5b81019080803573ffffffffffffffffffffffffffffffffffffffff169060200190929190803573ffffffffffffffffffffffffffffffffffffffff169060200190929190505050612dc8565b60405180821515815260200191505060405180910390f35b6000806000837bffffffffffffffffffffffffffffffffffffffffffffffffffffffff19167bffffffffffffffffffffffffffffffffffffffffffffffffffffffff1916815260200190815260200160002060009054906101000a900460ff169050919050565b606060068054600181600116156101000203166002900480601f016020809104026020016040519081016040528092919081815260200182805460018160011615610100020316600290048015610f225780601f10610ef757610100808354040283529160200191610f22565b820191906000526020600020905b815481529060010190602001808311610f0557829003601f168201915b5050505050905090565b6000610f3782612e5c565b610f8c576040517f08c379a000000000000000000000000000000000000000000000000000000000815260040180806020018281038252602c8152602001806144ae602c913960400191505060405180910390fd5b6004600083815260200190815260200160002060009054906101000a900473ffffffffffffffffffffffffffffffffffffffff169050919050565b6000610fd282611a2c565b90508073ffffffffffffffffffffffffffffffffffffffff168373ffffffffffffffffffffffffffffffffffffffff161415611059576040517f08c379a000000000000000000000000000000000000000000000000000000000815260040180806020018281038252602181526020018061455e6021913960400191505060405180910390fd5b8073ffffffffffffffffffffffffffffffffffffffff16611078612e79565b73ffffffffffffffffffffffffffffffffffffffff1614806110a757506110a6816110a1612e79565b612dc8565b5b6110fc576040517f08c379a00000000000000000000000000000000000000000000000000000000081526004018080602001828103825260388152602001806144016038913960400191505060405180910390fd5b6111068383612e81565b505050565b60006111176002612f3a565b905090565b61112d611127612e79565b82612f4f565b611182576040517f08c379a000000000000000000000000000000000000000000000000000000000815260040180806020018281038252603181526020018061457f6031913960400191505060405180910390fd5b61118d838383613043565b505050565b60006111e582600160008673ffffffffffffffffffffffffffffffffffffffff1673ffffffffffffffffffffffffffffffffffffffff16815260200190815260200160002061328690919063ffffffff16565b905092915050565b6112088383836040518060200160405280600081525061289a565b505050565b600d6020528060005260406000206000915090508060000154908060010154908060020154908060030160009054906101000a900473ffffffffffffffffffffffffffffffffffffffff16908060040160009054906101000a900473ffffffffffffffffffffffffffffffffffffffff16905085565b60008061129a8360026132a090919063ffffffff16565b50905080915050919050565b600083116112b357600080fd5b600a600081548092919060010191905055506112d133600a546132cc565b6112dd600a54826132ea565b604051806101000160405280600a5481526020016000151581526020018481526020018381526020018281526020013373ffffffffffffffffffffffffffffffffffffffff1681526020013373ffffffffffffffffffffffffffffffffffffffff1681526020013373ffffffffffffffffffffffffffffffffffffffff16815250600c6000600a5481526020019081526020016000206000820151816000015560208201518160010160006101000a81548160ff0219169083151502179055506040820151816002015560608201518160030190805190602001906113c39291906141b5565b5060808201518160040190805190602001906113e09291906141b5565b5060a08201518160050160006101000a81548173ffffffffffffffffffffffffffffffffffffffff021916908373ffffffffffffffffffffffffffffffffffffffff16021790555060c08201518160060160006101000a81548173ffffffffffffffffffffffffffffffffffffffff021916908373ffffffffffffffffffffffffffffffffffffffff16021790555060e08201518160070160006101000a81548173ffffffffffffffffffffffffffffffffffffffff021916908373ffffffffffffffffffffffffffffffffffffffff160217905550905050505050565b6000811180156114d05750600b548111155b6114d957600080fd5b6114e1614235565b600d60008381526020019081526020016000206040518060a00160405290816000820154815260200160018201548152602001600282015481526020016003820160009054906101000a900473ffffffffffffffffffffffffffffffffffffffff1673ffffffffffffffffffffffffffffffffffffffff1673ffffffffffffffffffffffffffffffffffffffff1681526020016004820160009054906101000a900473ffffffffffffffffffffffffffffffffffffffff1673ffffffffffffffffffffffffffffffffffffffff1673ffffffffffffffffffffffffffffffffffffffff168152505090506115dd81608001518260200151610fc7565b6115e5614290565b600c60008360200151815260200190815260200160002060405180610100016040529081600082015481526020016001820160009054906101000a900460ff1615151515815260200160028201548152602001600382018054600181600116156101000203166002900480601f0160208091040260200160405190810160405280929190818152602001828054600181600116156101000203166002900480156116d05780601f106116a5576101008083540402835291602001916116d0565b820191906000526020600020905b8154815290600101906020018083116116b357829003601f168201915b50505050508152602001600482018054600181600116156101000203166002900480601f0160208091040260200160405190810160405280929190818152602001828054600181600116156101000203166002900480156117725780601f1061174757610100808354040283529160200191611772565b820191906000526020600020905b81548152906001019060200180831161175557829003601f168201915b505050505081526020016005820160009054906101000a900473ffffffffffffffffffffffffffffffffffffffff1673ffffffffffffffffffffffffffffffffffffffff1673ffffffffffffffffffffffffffffffffffffffff1681526020016006820160009054906101000a900473ffffffffffffffffffffffffffffffffffffffff1673ffffffffffffffffffffffffffffffffffffffff1673ffffffffffffffffffffffffffffffffffffffff1681526020016007820160009054906101000a900473ffffffffffffffffffffffffffffffffffffffff1673ffffffffffffffffffffffffffffffffffffffff1673ffffffffffffffffffffffffffffffffffffffff16815250509050816040015181604001818152505081608001518160c0019073ffffffffffffffffffffffffffffffffffffffff16908173ffffffffffffffffffffffffffffffffffffffff168152505080600c6000846020015181526020019081526020016000206000820151816000015560208201518160010160006101000a81548160ff0219169083151502179055506040820151816002015560608201518160030190805190602001906119319291906141b5565b50608082015181600401908051906020019061194e9291906141b5565b5060a08201518160050160006101000a81548173ffffffffffffffffffffffffffffffffffffffff021916908373ffffffffffffffffffffffffffffffffffffffff16021790555060c08201518160060160006101000a81548173ffffffffffffffffffffffffffffffffffffffff021916908373ffffffffffffffffffffffffffffffffffffffff16021790555060e08201518160070160006101000a81548173ffffffffffffffffffffffffffffffffffffffff021916908373ffffffffffffffffffffffffffffffffffffffff160217905550905050505050565b6000611a5c826040518060600160405280602981526020016144636029913960026133749092919063ffffffff16565b9050919050565b606060098054600181600116156101000203166002900480601f016020809104026020016040519081016040528092919081815260200182805460018160011615610100020316600290048015611afb5780601f10611ad057610100808354040283529160200191611afb565b820191906000526020600020905b815481529060010190602001808311611ade57829003601f168201915b5050505050905090565b60008073ffffffffffffffffffffffffffffffffffffffff168273ffffffffffffffffffffffffffffffffffffffff161415611b8c576040517f08c379a000000000000000000000000000000000000000000000000000000000815260040180806020018281038252602a815260200180614439602a913960400191505060405180910390fd5b611bd3600160008473ffffffffffffffffffffffffffffffffffffffff1673ffffffffffffffffffffffffffffffffffffffff168152602001908152602001600020613393565b9050919050565b600a5481565b606060078054600181600116156101000203166002900480601f016020809104026020016040519081016040528092919081815260200182805460018160011615610100020316600290048015611c785780601f10611c4d57610100808354040283529160200191611c78565b820191906000526020600020905b815481529060010190602001808311611c5b57829003601f168201915b5050505050905090565b611c8a612e79565b73ffffffffffffffffffffffffffffffffffffffff168273ffffffffffffffffffffffffffffffffffffffff161415611d2b576040517f08c379a00000000000000000000000000000000000000000000000000000000081526004018080602001828103825260198152602001807f4552433732313a20617070726f766520746f2063616c6c65720000000000000081525060200191505060405180910390fd5b8060056000611d38612e79565b73ffffffffffffffffffffffffffffffffffffffff1673ffffffffffffffffffffffffffffffffffffffff16815260200190815260200160002060008473ffffffffffffffffffffffffffffffffffffffff1673ffffffffffffffffffffffffffffffffffffffff16815260200190815260200160002060006101000a81548160ff0219169083151502179055508173ffffffffffffffffffffffffffffffffffffffff16611de5612e79565b73ffffffffffffffffffffffffffffffffffffffff167f17307eab39ab6107e8899845ad3d59bd9653f200f220920489ca2b5937696c318360405180821515815260200191505060405180910390a35050565b80600c600082815260200190815260200160002060010160009054906101000a900460ff1615611ed0576040517f08c379a000000000000000000000000000000000000000000000000000000000815260040180806020018281038252601c8152602001807f417373657420736f6c64206f7220646f6573206e6f742065786973740000000081525060200191505060405180910390fd5b611ed8614290565b600c600084815260200190815260200160002060405180610100016040529081600082015481526020016001820160009054906101000a900460ff1615151515815260200160028201548152602001600382018054600181600116156101000203166002900480601f016020809104026020016040519081016040528092919081815260200182805460018160011615610100020316600290048015611fbf5780601f10611f9457610100808354040283529160200191611fbf565b820191906000526020600020905b815481529060010190602001808311611fa257829003601f168201915b50505050508152602001600482018054600181600116156101000203166002900480601f0160208091040260200160405190810160405280929190818152602001828054600181600116156101000203166002900480156120615780601f1061203657610100808354040283529160200191612061565b820191906000526020600020905b81548152906001019060200180831161204457829003601f168201915b505050505081526020016005820160009054906101000a900473ffffffffffffffffffffffffffffffffffffffff1673ffffffffffffffffffffffffffffffffffffffff1673ffffffffffffffffffffffffffffffffffffffff1681526020016006820160009054906101000a900473ffffffffffffffffffffffffffffffffffffffff1673ffffffffffffffffffffffffffffffffffffffff1673ffffffffffffffffffffffffffffffffffffffff1681526020016007820160009054906101000a900473ffffffffffffffffffffffffffffffffffffffff1673ffffffffffffffffffffffffffffffffffffffff1673ffffffffffffffffffffffffffffffffffffffff1681525050905060008160400151905060008260a001519050600060608273ffffffffffffffffffffffffffffffffffffffff168460405180600001905060006040518083038185875af1925050503d80600081146121e2576040519150601f19603f3d011682016040523d82523d6000602084013e6121e7565b606091505b50915091508115612247576121fd8333896111ed565b6001856020019015159081151581525050338560e0019073ffffffffffffffffffffffffffffffffffffffff16908173ffffffffffffffffffffffffffffffffffffffff16815250505b84600c60008981526020019081526020016000206000820151816000015560208201518160010160006101000a81548160ff0219169083151502179055506040820151816002015560608201518160030190805190602001906122ab9291906141b5565b5060808201518160040190805190602001906122c89291906141b5565b5060a08201518160050160006101000a81548173ffffffffffffffffffffffffffffffffffffffff021916908373ffffffffffffffffffffffffffffffffffffffff16021790555060c08201518160060160006101000a81548173ffffffffffffffffffffffffffffffffffffffff021916908373ffffffffffffffffffffffffffffffffffffffff16021790555060e08201518160070160006101000a81548173ffffffffffffffffffffffffffffffffffffffff021916908373ffffffffffffffffffffffffffffffffffffffff16021790555090505050505050505050565b600b5481565b81600c600082815260200190815260200160002060010160009054906101000a900460ff1615612448576040517f08c379a000000000000000000000000000000000000000000000000000000000815260040180806020018281038252601c8152602001807f417373657420736f6c64206f7220646f6573206e6f742065786973740000000081525060200191505060405180910390fd5b612450614290565b600c600085815260200190815260200160002060405180610100016040529081600082015481526020016001820160009054906101000a900460ff1615151515815260200160028201548152602001600382018054600181600116156101000203166002900480601f0160208091040260200160405190810160405280929190818152602001828054600181600116156101000203166002900480156125375780601f1061250c57610100808354040283529160200191612537565b820191906000526020600020905b81548152906001019060200180831161251a57829003601f168201915b50505050508152602001600482018054600181600116156101000203166002900480601f0160208091040260200160405190810160405280929190818152602001828054600181600116156101000203166002900480156125d95780601f106125ae576101008083540402835291602001916125d9565b820191906000526020600020905b8154815290600101906020018083116125bc57829003601f168201915b505050505081526020016005820160009054906101000a900473ffffffffffffffffffffffffffffffffffffffff1673ffffffffffffffffffffffffffffffffffffffff1673ffffffffffffffffffffffffffffffffffffffff1681526020016006820160009054906101000a900473ffffffffffffffffffffffffffffffffffffffff1673ffffffffffffffffffffffffffffffffffffffff1673ffffffffffffffffffffffffffffffffffffffff1681526020016007820160009054906101000a900473ffffffffffffffffffffffffffffffffffffffff1673ffffffffffffffffffffffffffffffffffffffff1673ffffffffffffffffffffffffffffffffffffffff16815250509050600081604001519050808411612764576040517f08c379a000000000000000000000000000000000000000000000000000000000815260040180806020018281038252601f8152602001807f42696420616d6f756e74206c657373207468616e20626173652070726963650081525060200191505060405180910390fd5b600b600081548092919060010191905055506040518060a00160405280600b5481526020018681526020018581526020018360a0015173ffffffffffffffffffffffffffffffffffffffff1681526020013373ffffffffffffffffffffffffffffffffffffffff16815250600d6000600b54815260200190815260200160002060008201518160000155602082015181600101556040820151816002015560608201518160030160006101000a81548173ffffffffffffffffffffffffffffffffffffffff021916908373ffffffffffffffffffffffffffffffffffffffff16021790555060808201518160040160006101000a81548173ffffffffffffffffffffffffffffffffffffffff021916908373ffffffffffffffffffffffffffffffffffffffff1602179055509050505050505050565b6128ab6128a5612e79565b83612f4f565b612900576040517f08c379a000000000000000000000000000000000000000000000000000000000815260040180806020018281038252603181526020018061457f6031913960400191505060405180910390fd5b61290c848484846133a8565b50505050565b606061291d82612e5c565b612972576040517f08c379a000000000000000000000000000000000000000000000000000000000815260040180806020018281038252602f81526020018061452f602f913960400191505060405180910390fd5b6060600860008481526020019081526020016000208054600181600116156101000203166002900480601f016020809104026020016040519081016040528092919081815260200182805460018160011615610100020316600290048015612a1b5780601f106129f057610100808354040283529160200191612a1b565b820191906000526020600020905b8154815290600101906020018083116129fe57829003601f168201915b505050505090506060612a2c611a63565b9050600081511415612a42578192505050612bde565b600082511115612b135780826040516020018083805190602001908083835b60208310612a845780518252602082019150602081019050602083039250612a61565b6001836020036101000a03801982511681845116808217855250505050505090500182805190602001908083835b60208310612ad55780518252602082019150602081019050602083039250612ab2565b6001836020036101000a0380198251168184511680821785525050505050509050019250505060405160208183030381529060405292505050612bde565b80612b1d8561341a565b6040516020018083805190602001908083835b60208310612b535780518252602082019150602081019050602083039250612b30565b6001836020036101000a03801982511681845116808217855250505050505090500182805190602001908083835b60208310612ba45780518252602082019150602081019050602083039250612b81565b6001836020036101000a03801982511681845116808217855250505050505090500192505050604051602081830303815290604052925050505b919050565b600c6020528060005260406000206000915090508060000154908060010160009054906101000a900460ff1690806002015490806003018054600181600116156101000203166002900480601f016020809104026020016040519081016040528092919081815260200182805460018160011615610100020316600290048015612cae5780601f10612c8357610100808354040283529160200191612cae565b820191906000526020600020905b815481529060010190602001808311612c9157829003601f168201915b505050505090806004018054600181600116156101000203166002900480601f016020809104026020016040519081016040528092919081815260200182805460018160011615610100020316600290048015612d4c5780601f10612d2157610100808354040283529160200191612d4c565b820191906000526020600020905b815481529060010190602001808311612d2f57829003601f168201915b5050505050908060050160009054906101000a900473ffffffffffffffffffffffffffffffffffffffff16908060060160009054906101000a900473ffffffffffffffffffffffffffffffffffffffff16908060070160009054906101000a900473ffffffffffffffffffffffffffffffffffffffff16905088565b6000600560008473ffffffffffffffffffffffffffffffffffffffff1673ffffffffffffffffffffffffffffffffffffffff16815260200190815260200160002060008373ffffffffffffffffffffffffffffffffffffffff1673ffffffffffffffffffffffffffffffffffffffff16815260200190815260200160002060009054906101000a900460ff16905092915050565b6000612e7282600261356190919063ffffffff16565b9050919050565b600033905090565b816004600083815260200190815260200160002060006101000a81548173ffffffffffffffffffffffffffffffffffffffff021916908373ffffffffffffffffffffffffffffffffffffffff160217905550808273ffffffffffffffffffffffffffffffffffffffff16612ef483611a2c565b73ffffffffffffffffffffffffffffffffffffffff167f8c5be1e5ebec7d5bd14f71427d1e84f3dd0314c0f7b2291e5b200ac8c7c3b92560405160405180910390a45050565b6000612f488260000161357b565b9050919050565b6000612f5a82612e5c565b612faf576040517f08c379a000000000000000000000000000000000000000000000000000000000815260040180806020018281038252602c8152602001806143d5602c913960400191505060405180910390fd5b6000612fba83611a2c565b90508073ffffffffffffffffffffffffffffffffffffffff168473ffffffffffffffffffffffffffffffffffffffff16148061302957508373ffffffffffffffffffffffffffffffffffffffff1661301184610f2c565b73ffffffffffffffffffffffffffffffffffffffff16145b8061303a57506130398185612dc8565b5b91505092915050565b8273ffffffffffffffffffffffffffffffffffffffff1661306382611a2c565b73ffffffffffffffffffffffffffffffffffffffff16146130cf576040517f08c379a00000000000000000000000000000000000000000000000000000000081526004018080602001828103825260298152602001806145066029913960400191505060405180910390fd5b600073ffffffffffffffffffffffffffffffffffffffff168273ffffffffffffffffffffffffffffffffffffffff161415613155576040517f08c379a000000000000000000000000000000000000000000000000000000000815260040180806020018281038252602481526020018061438b6024913960400191505060405180910390fd5b61316083838361358c565b61316b600082612e81565b6131bc81600160008673ffffffffffffffffffffffffffffffffffffffff1673ffffffffffffffffffffffffffffffffffffffff16815260200190815260200160002061359190919063ffffffff16565b5061320e81600160008573ffffffffffffffffffffffffffffffffffffffff1673ffffffffffffffffffffffffffffffffffffffff1681526020019081526020016000206135ab90919063ffffffff16565b50613225818360026135c59092919063ffffffff16565b50808273ffffffffffffffffffffffffffffffffffffffff168473ffffffffffffffffffffffffffffffffffffffff167fddf252ad1be2c89b69c2b068fc378daa952ba7f163c4a11628f55a4df523b3ef60405160405180910390a4505050565b600061329583600001836135fa565b60001c905092915050565b6000806000806132b3866000018661367d565b915091508160001c8160001c9350935050509250929050565b6132e6828260405180602001604052806000815250613716565b5050565b6132f382612e5c565b613348576040517f08c379a000000000000000000000000000000000000000000000000000000000815260040180806020018281038252602c8152602001806144da602c913960400191505060405180910390fd5b8060086000848152602001908152602001600020908051906020019061336f9291906141b5565b505050565b6000613387846000018460001b84613787565b60001c90509392505050565b60006133a18260000161387d565b9050919050565b6133b3848484613043565b6133bf8484848461388e565b613414576040517f08c379a00000000000000000000000000000000000000000000000000000000081526004018080602001828103825260328152602001806143596032913960400191505060405180910390fd5b50505050565b60606000821415613462576040518060400160405280600181526020017f3000000000000000000000000000000000000000000000000000000000000000815250905061355c565b600082905060005b6000821461348c578080600101915050600a828161348457fe5b04915061346a565b60608167ffffffffffffffff811180156134a557600080fd5b506040519080825280601f01601f1916602001820160405280156134d85781602001600182028036833780820191505090505b50905060006001830390508593505b6000841461355457600a84816134f957fe5b0660300160f81b8282806001900393508151811061351357fe5b60200101907effffffffffffffffffffffffffffffffffffffffffffffffffffffffffffff1916908160001a905350600a848161354c57fe5b0493506134e7565b819450505050505b919050565b6000613573836000018360001b613aa7565b905092915050565b600081600001805490509050919050565b505050565b60006135a3836000018360001b613aca565b905092915050565b60006135bd836000018360001b613bb2565b905092915050565b60006135f1846000018460001b8473ffffffffffffffffffffffffffffffffffffffff1660001b613c22565b90509392505050565b60008183600001805490501161365b576040517f08c379a00000000000000000000000000000000000000000000000000000000081526004018080602001828103825260228152602001806143376022913960400191505060405180910390fd5b82600001828154811061366a57fe5b9060005260206000200154905092915050565b600080828460000180549050116136df576040517f08c379a000000000000000000000000000000000000000000000000000000000815260040180806020018281038252602281526020018061448c6022913960400191505060405180910390fd5b60008460000184815481106136f057fe5b906000526020600020906002020190508060000154816001015492509250509250929050565b6137208383613cfe565b61372d600084848461388e565b613782576040517f08c379a00000000000000000000000000000000000000000000000000000000081526004018080602001828103825260328152602001806143596032913960400191505060405180910390fd5b505050565b6000808460010160008581526020019081526020016000205490506000811415839061384e576040517f08c379a00000000000000000000000000000000000000000000000000000000081526004018080602001828103825283818151815260200191508051906020019080838360005b838110156138135780820151818401526020810190506137f8565b50505050905090810190601f1680156138405780820380516001836020036101000a031916815260200191505b509250505060405180910390fd5b5084600001600182038154811061386157fe5b9060005260206000209060020201600101549150509392505050565b600081600001805490509050919050565b60006138af8473ffffffffffffffffffffffffffffffffffffffff16613ef2565b6138bc5760019050613a9f565b6060613a2663150b7a0260e01b6138d1612e79565b888787604051602401808573ffffffffffffffffffffffffffffffffffffffff1681526020018473ffffffffffffffffffffffffffffffffffffffff16815260200183815260200180602001828103825283818151815260200191508051906020019080838360005b8381101561395557808201518184015260208101905061393a565b50505050905090810190601f1680156139825780820380516001836020036101000a031916815260200191505b5095505050505050604051602081830303815290604052907bffffffffffffffffffffffffffffffffffffffffffffffffffffffff19166020820180517bffffffffffffffffffffffffffffffffffffffffffffffffffffffff8381831617835250505050604051806060016040528060328152602001614359603291398773ffffffffffffffffffffffffffffffffffffffff16613f059092919063ffffffff16565b90506000818060200190516020811015613a3f57600080fd5b8101908080519060200190929190505050905063150b7a0260e01b7bffffffffffffffffffffffffffffffffffffffffffffffffffffffff1916817bffffffffffffffffffffffffffffffffffffffffffffffffffffffff191614925050505b949350505050565b600080836001016000848152602001908152602001600020541415905092915050565b60008083600101600084815260200190815260200160002054905060008114613ba65760006001820390506000600186600001805490500390506000866000018281548110613b1557fe5b9060005260206000200154905080876000018481548110613b3257fe5b9060005260206000200181905550600183018760010160008381526020019081526020016000208190555086600001805480613b6a57fe5b60019003818190600052602060002001600090559055866001016000878152602001908152602001600020600090556001945050505050613bac565b60009150505b92915050565b6000613bbe8383613f1d565b613c17578260000182908060018154018082558091505060019003906000526020600020016000909190919091505582600001805490508360010160008481526020019081526020016000208190555060019050613c1c565b600090505b92915050565b6000808460010160008581526020019081526020016000205490506000811415613cc957846000016040518060400160405280868152602001858152509080600181540180825580915050600190039060005260206000209060020201600090919091909150600082015181600001556020820151816001015550508460000180549050856001016000868152602001908152602001600020819055506001915050613cf7565b82856000016001830381548110613cdc57fe5b90600052602060002090600202016001018190555060009150505b9392505050565b600073ffffffffffffffffffffffffffffffffffffffff168273ffffffffffffffffffffffffffffffffffffffff161415613da1576040517f08c379a00000000000000000000000000000000000000000000000000000000081526004018080602001828103825260208152602001807f4552433732313a206d696e7420746f20746865207a65726f206164647265737381525060200191505060405180910390fd5b613daa81612e5c565b15613e1d576040517f08c379a000000000000000000000000000000000000000000000000000000000815260040180806020018281038252601c8152602001807f4552433732313a20746f6b656e20616c7265616479206d696e7465640000000081525060200191505060405180910390fd5b613e296000838361358c565b613e7a81600160008573ffffffffffffffffffffffffffffffffffffffff1673ffffffffffffffffffffffffffffffffffffffff1681526020019081526020016000206135ab90919063ffffffff16565b50613e91818360026135c59092919063ffffffff16565b50808273ffffffffffffffffffffffffffffffffffffffff16600073ffffffffffffffffffffffffffffffffffffffff167fddf252ad1be2c89b69c2b068fc378daa952ba7f163c4a11628f55a4df523b3ef60405160405180910390a45050565b600080823b905060008111915050919050565b6060613f148484600085613f40565b90509392505050565b600080836001016000848152602001908152602001600020541415905092915050565b606082471015613f9b576040517f08c379a00000000000000000000000000000000000000000000000000000000081526004018080602001828103825260268152602001806143af6026913960400191505060405180910390fd5b613fa485613ef2565b614016576040517f08c379a000000000000000000000000000000000000000000000000000000000815260040180806020018281038252601d8152602001807f416464726573733a2063616c6c20746f206e6f6e2d636f6e747261637400000081525060200191505060405180910390fd5b600060608673ffffffffffffffffffffffffffffffffffffffff1685876040518082805190602001908083835b602083106140665780518252602082019150602081019050602083039250614043565b6001836020036101000a03801982511681845116808217855250505050505090500191505060006040518083038185875af1925050503d80600081146140c8576040519150601f19603f3d011682016040523d82523d6000602084013e6140cd565b606091505b50915091506140dd8282866140e9565b92505050949350505050565b606083156140f9578290506141ae565b60008351111561410c5782518084602001fd5b816040517f08c379a00000000000000000000000000000000000000000000000000000000081526004018080602001828103825283818151815260200191508051906020019080838360005b83811015614173578082015181840152602081019050614158565b50505050905090810190601f1680156141a05780820380516001836020036101000a031916815260200191505b509250505060405180910390fd5b9392505050565b828054600181600116156101000203166002900490600052602060002090601f016020900481019282601f106141f657805160ff1916838001178555614224565b82800160010185558215614224579182015b82811115614223578251825591602001919060010190614208565b5b5090506142319190614319565b5090565b6040518060a00160405280600081526020016000815260200160008152602001600073ffffffffffffffffffffffffffffffffffffffff168152602001600073ffffffffffffffffffffffffffffffffffffffff1681525090565b60405180610100016040528060008152602001600015158152602001600081526020016060815260200160608152602001600073ffffffffffffffffffffffffffffffffffffffff168152602001600073ffffffffffffffffffffffffffffffffffffffff168152602001600073ffffffffffffffffffffffffffffffffffffffff1681525090565b5b8082111561433257600081600090555060010161431a565b509056fe456e756d657261626c655365743a20696e646578206f7574206f6620626f756e64734552433732313a207472616e7366657220746f206e6f6e20455243373231526563656976657220696d706c656d656e7465724552433732313a207472616e7366657220746f20746865207a65726f2061646472657373416464726573733a20696e73756666696369656e742062616c616e636520666f722063616c6c4552433732313a206f70657261746f7220717565727920666f72206e6f6e6578697374656e7420746f6b656e4552433732313a20617070726f76652063616c6c6572206973206e6f74206f776e6572206e6f7220617070726f76656420666f7220616c6c4552433732313a2062616c616e636520717565727920666f7220746865207a65726f20616464726573734552433732313a206f776e657220717565727920666f72206e6f6e6578697374656e7420746f6b656e456e756d657261626c654d61703a20696e646578206f7574206f6620626f756e64734552433732313a20617070726f76656420717565727920666f72206e6f6e6578697374656e7420746f6b656e4552433732314d657461646174613a2055524920736574206f66206e6f6e6578697374656e7420746f6b656e4552433732313a207472616e73666572206f6620746f6b656e2074686174206973206e6f74206f776e4552433732314d657461646174613a2055524920717565727920666f72206e6f6e6578697374656e7420746f6b656e4552433732313a20617070726f76616c20746f2063757272656e74206f776e65724552433732313a207472616e736665722063616c6c6572206973206e6f74206f776e6572206e6f7220617070726f766564a2646970667358221220e0a1d864d0812c3def2fc4457e017ee9c909adffe1ef2398830cdb1f8c5f45fc64736f6c63430007010033",
  "immutableReferences": {},
  "source": "pragma solidity >=0.5.0;\n\nimport \"@openzeppelin/contracts/token/ERC721/ERC721.sol\";\n\ncontract Arcello is ERC721 {\n\n  constructor() ERC721(\"Arcello\", \"ARC\") {}\n\n  modifier isAsset(uint id) {\n    require(!assets[id].sold, \"Asset sold or does not exist\");\n    _;\n  }\n\n  uint public tokenid;\n  uint public bidCount;\n\n  mapping(uint => Asset) public assets;    \n  mapping(uint => Bid) public bids;\n\n  struct Asset {\n    uint id;\n    bool sold;\n    uint256 price;\n    string name;\n    string fileid;\n    address payable creator;\n    address approvedTo;\n    address owner;\n  }\n\n  struct Bid {\n    uint id;\n    uint tid;\n    uint256 amount;\n    address payable creator;\n    address bidder;\n  }\n\n  function createAsset(uint256 _price, string memory _name, string memory _fileid) public {\n    require(_price > 0);\n    tokenid++;\n    _safeMint(msg.sender, tokenid);\n    _setTokenURI(tokenid, _fileid);\n    assets[tokenid] = Asset(tokenid, false, _price, _name, _fileid, msg.sender, msg.sender, msg.sender);\n  }\n\n  function createBid(uint _tid, uint256 _amount) public payable isAsset(_tid) {\n    Asset memory asset = assets[_tid];\n    uint256 price = asset.price;\n    require(_amount > price, \"Bid amount less than base price\");\n    bidCount++;    \n    bids[bidCount] = Bid(bidCount, _tid, _amount, asset.creator,  msg.sender);\n  }\n\n  function approveBid(uint _id) public {\n    require(_id > 0 && _id <= bidCount);\n    Bid memory bid = bids[_id];\n    approve(bid.bidder, bid.tid);\n    Asset memory asset = assets[bid.tid];\n    asset.price = bid.amount;\n    asset.approvedTo = bid.bidder;\n    assets[bid.tid] = asset;\n  }\n\n  function purchaseAsset(uint _id) public payable isAsset(_id) {\n    Asset memory asset = assets[_id];\n    uint256 price = asset.price;\n    address payable creator = asset.creator;\n    (bool paid, bytes memory data) = address(creator).call{value: price}(\"\");\n    if(paid) {\n       safeTransferFrom(creator, msg.sender, _id);\n       asset.sold = true;\n       asset.owner = msg.sender;\n    }\n    assets[_id] = asset;\n  }\n}",
  "sourcePath": "/home/fazil/repos/my_repos/blockchain/Arcello/src/contracts/Arcello.sol",
  "compiler": {
    "name": "solc",
    "version": "0.7.1+commit.f4a555be.Emscripten.clang"
  },
  "schemaVersion": "3.4.1",
  "updatedAt": "2021-05-29T16:04:50.857Z",
  "networkType": "ethereum",
  "devdoc": {
    "kind": "dev",
    "methods": {
      "approve(address,uint256)": {
        "details": "See {IERC721-approve}."
      },
      "balanceOf(address)": {
        "details": "See {IERC721-balanceOf}."
      },
      "baseURI()": {
        "details": "Returns the base URI set via {_setBaseURI}. This will be automatically added as a prefix in {tokenURI} to each token's URI, or to the token ID if no specific URI is set for that token ID."
      },
      "getApproved(uint256)": {
        "details": "See {IERC721-getApproved}."
      },
      "isApprovedForAll(address,address)": {
        "details": "See {IERC721-isApprovedForAll}."
      },
      "name()": {
        "details": "See {IERC721Metadata-name}."
      },
      "ownerOf(uint256)": {
        "details": "See {IERC721-ownerOf}."
      },
      "safeTransferFrom(address,address,uint256)": {
        "details": "See {IERC721-safeTransferFrom}."
      },
      "safeTransferFrom(address,address,uint256,bytes)": {
        "details": "See {IERC721-safeTransferFrom}."
      },
      "setApprovalForAll(address,bool)": {
        "details": "See {IERC721-setApprovalForAll}."
      },
      "supportsInterface(bytes4)": {
        "details": "See {IERC165-supportsInterface}. Time complexity O(1), guaranteed to always use less than 30 000 gas."
      },
      "symbol()": {
        "details": "See {IERC721Metadata-symbol}."
      },
      "tokenByIndex(uint256)": {
        "details": "See {IERC721Enumerable-tokenByIndex}."
      },
      "tokenOfOwnerByIndex(address,uint256)": {
        "details": "See {IERC721Enumerable-tokenOfOwnerByIndex}."
      },
      "tokenURI(uint256)": {
        "details": "See {IERC721Metadata-tokenURI}."
      },
      "totalSupply()": {
        "details": "See {IERC721Enumerable-totalSupply}."
      },
      "transferFrom(address,address,uint256)": {
        "details": "See {IERC721-transferFrom}."
      }
    },
    "version": 1
  },
  "userdoc": {
    "kind": "user",
    "methods": {},
    "version": 1
  }
}